:100000000C942A000C943F000C943F000C943F0089
:100010000C943F000C943F000C943F000C943F0064
:100020000C943F000C943F000C943F000C943F0054
:100030000C943F000C943F000C943F000C943F0044
:100040000C943F000C943F000C943F000C943F0034
:100050000C943F0011241FBECFE5D8E0DEBFCDBF1A
:1000600010E0A0E6B0E0E8E6F1E002C005900D92F5
:10007000A637B107D9F70E94A4000C94B2000C94E3
:10008000000082BB85B38E7B85BB85B3806885BB52
:1000900087EC90E00197F1F700C0000085B38F77FF
:1000A00085BB87EC90E00197F1F700C00000089550
:1000B00082BB85B38F7B85BB85B3816885BB87ECAD
:1000C00090E00197F1F700C0000085B38F7785BB02
:1000D00087EC90E00197F1F700C0000008958FEFE2
:1000E00081BB84BB85B38F7785BB8FE99FE0019788
:1000F000F1F700C0000088E30E9441008EE00E94FA
:10010000410081E00E9441008FE99FE00197F1F7F3
:1001100000C0000086E00E94410008950F931F93E5
:10012000CF93DF938C01C0E0D0E003C021960E9402
:100130005800F801EC0FFD1F80818111F7CFDF918E
:10014000CF911F910F9108950E946F0080E690E07B
:100150000E948E0080EC0E94410080E790E00E94A7
:080160008E00FFCFF894FFCFE1
:1001680057656C636F6D6520746F204B4C4520009C
:060178005445434800005D
:00000001FF
