S01200006D635F70726F6A6563742E73726563EC
S11300000C942A000C9447000C9447000C9447006D
S11300100C9447000C9447000C9447000C94470040
S11300200C9447000C9447000C9447000C94470030
S11300300C9447000C9447000C9447000C94470020
S11300400C9447000C9447000C9447000C94470010
S11300500C94470011241FBECFE5D8E0DEBFCDBF0E
S113006010E0A0E6B0E0E2EAF5E002C005900D92EF
S1130070A83FB107D9F721E0A8EFB0E001C01D9275
S1130080A030B207E1F70E948B010C94CF020C94CC
S1130090000082BB85B38E7B85BB85B3806885BB3E
S11300A087EC90E00197F1F700C0000085B38F77EB
S11300B085BB87EC90E00197F1F700C0000008953C
S11300C082BB85B38F7B85BB85B3816885BB87EC99
S11300D090E00197F1F700C0000085B38F7785BBEE
S11300E087EC90E00197F1F700C0000008958FEFCE
S11300F081BB84BB85B38F7785BB8FE99FE0019774
S1130100F1F700C0000088E30E9449008EE00E94DD
S1130110490081E00E9449008FE99FE00197F1F7CF
S113012000C0000086E00E94490008950F931F93C9
S1130130CF93DF938C01C0E0D0E003C021960E94EE
S11301406000F801EC0FFD1F80818111F7CFDF9172
S1130150CF911F910F91089587B3807F87BB88B398
S11301608F6088BB08958FEF81BB90EF9ABB8BBBE8
S11301700895B09B09C0B19B0AC0B29B0BC0B39B4E
S11301800CC080E090E0089581E090E0089582E062
S113019090E0089583E090E0089584E090E008956D
S11301A00E94B3008FEE8BBB89B38F708F30A1F4A4
S11301B08FED8BBB89B38F708F3081F48FEB8BBB4A
S11301C089B38F708F3061F48FE78BBB89B38F70E5
S11301D08F3031F3E3E005C0E0E003C0E1E001C0AB
S11301E0E2E08E3049F4F0E0EE0FFF1FEE0FFF1F48
S11301F0E05AFF4F808108958D3049F4F0E0EE0F0E
S1130200FF1FEE0FFF1FE05AFF4F818108958B30CF
S113021049F4F0E0EE0FFF1FEE0FFF1FE05AFF4F0F
S113022082810895F0E0EE0FFF1FEE0FFF1FE05AEA
S1130230FF4F8381089580E790E00E9496000E941A
S1130240D0008133C9F42091FC003091FD002F5F70
S11302503F4F3093FD002093FC000E9460002FEF7D
S113026089E698E1215080409040E1F700C0000009
S113027081E00E94490008958233C9F42091FA0074
S11302803091FB002F5F3F4F3093FB002093FA0027
S11302900E9460002FEF89E698E121508040904051
S11302A0E1F700C0000081E00E9449000895833313
S11302B0C9F42091FE003091FF002F5F3F4F30932F
S11302C0FF002093FE000E9460002FEF89E698E172
S11302D0215080409040E1F700C0000081E00E947E
S11302E0490008952091F8003091F9002F5F3F4FA5
S11302F03093F9002093F8000E9460002FEF89E604
S113030098E1215080409040E1F700C0000081E076
S11303100E9449000895CF93DF93CDB7DEB7649769
S11303200FB6F894DEBF0FBECDBF1092FD00109241
S1130330FC001092FB001092FA001092FF00109241
S1130340FE001092F9001092F8000E94AC000E9486
S1130350770086E790E00E9496002FEF89E698E107
S1130360215080409040E1F700C0000080E80E94E6
S113037049000E94B9008130910519F40E941B01C3
S1130380F8CF8230910509F05BC04AE0BE016F5F8F
S11303907F4F8091FC009091FD000E949A0289E7B2
S11303A090E00E949600CE0101960E9496002FEFE5
S11303B089E698E1215080409040E1F700C00000B8
S11303C081E00E9449004AE0BE016F5F7F4F809147
S11303D0FA009091FB000E949A0287E890E00E9444
S11303E09600CE0101960E9496002FEF89E698E1CF
S11303F0215080409040E1F700C0000081E00E945D
S113040049004AE0BE016F5F7F4F8091FE009091EA
S1130410FF000E949A0286E990E00E949600CE01B5
S113042001960E9496002FEF89E698E121508040C2
S11304309040E1F700C0000081E00E94490099CF9C
S11304408330910509F056C02091FC003091FD00E5
S11304508091FA009091FB00820F931F2091FE007F
S11304603091FF004AE0BE016F5F7F4F820F931F00
S11304700E949A0285EA90E00E949600CE010196BD
S11304800E9496002FEF89E698E121508040904029
S1130490E1F700C0000081E00E944900CE0101960E
S11304A00E9496002091FC003091FD008091FA009A
S11304B09091FB008217930764F44091FE005091E1
S11304C0FF00421753072CF48CEA90E00E94960038
S11304D050CF2091FE003091FF00281739072CF4EB
S11304E083EC90E00E94960044CF8AED90E00E9455
S11304F096003FCF049709F03CCF81EF90E00E9433
S113050096002FEF89E698E1215080409040E1F772
S113051000C000001092FD001092FC001092FB003D
S11305201092FA001092FF001092FE0081E00E94E7
S113053049001FCFBB274A3031F4992322F4BDE28E
S1130540909581959F4F0C94A602BB27FB015527DC
S1130550AA27880F991FAA1FA41710F0A41B83951C
S11305605051B9F7A05DAA3308F0A95DA193009793
S113057079F7B111B1931192CB010C94BF02DC0154
S1130580FC01672F71917723E1F7329704C07C91C6
S11305906D9370836291AE17BF07C8F30895F89402
S10505A0FFCF87
S11305A23437392F3538362A3132332D20303D2B2A
S11305B252656164790048490043616E646964610B
S11305C2746520313A20002043616E646964617469
S11305D26520323A20002043616E64696461746567
S11305E220333A2000546F74616C200057494E4EF8
S11305F24552203A2043616E646964617465203116
S113060221210057494E4E4552203A2043616E64DF
S11306126964617465203221210057494E4E455266
S1130622203A2043616E6469646174652033212138
S10B063200436C6561720000D5
S9030000FC
